:020000040800F2
:10000000B1AA010000000000000000000000000094
:1000100000000000000000000000000000000000E0
:1000200000000000000000000000000000000000D0
:1000300000000000000000000000000000000000C0
:1000400000000000000000000000000000000000B0
:1000500000000000000000000000000000000000A0
:100060000000000000000000000000000000000090
:100070000000000000000000000000000000000080
:100080000000000000000000000000000000000070
:100090000000000000000000000000000000000060
:1000A0000000000000000000000000000000000050
:1000B0000000000000000000000000000000000040
:1000C000FC03000800000000000000000000000029
:1000D0000000000000000000000000000000000020
:1000E0000000000000000000000000000000000010
:1000F0000000000000000000000000000000000000
:1001000000000000000000000000000000000000EF
:1001100000000000000000000000000000000000DF
:1001200000000000000000000000000000000000CF
:1001300000000000000000000000000000000000BF
:1001400000000000000000000000000000000000AF
:100150000000000000000000000000007370043088
:10016000170500001305C5FF8545F605637BB5003F
:1001700089816378B500170500001305C5002E9529
:1001800002859302002073A0027D970200009382F3
:1001900062E773907230971200009382629E7390B0
:1001A000C27E73E0C07E971200009382A295739086
:1001B0005230970100189381E16A178100181301EA
:1001C00061E4172500001305A5B497050018938571
:1001D00065E3170600181306E6E963FAC5008322F3
:1001E000050023A0550011059105E3EAC5FE17059A
:1001F0000018130525E89385818A6377B5002320CD
:1002000005001105E36DB5FE73F00232171500000D
:10021000130525AFEF00902BEF001032014581450B
:10022000F1226F00502B01A073E00232828073F044
:0602300002328280000092
:100240006E6D690A00000000747261700A0000009F
:100250000A50726F6772616D2068617320657869FA
:10026000746564207769746820636F64653A000080
:100270003078000034150008E81500083E15000825
:10028000E8150008DA150008E81500083E15000812
:100290003415000834150008DA1500083E1500086A
:1002A0001A1500081A1500081A150008421500084A
:1002B0001C1A00081C1A0008341A0008161A000834
:1002C000161A0008C21A0008341A0008161A000884
:1002D000C21A0008161A0008341A0008141A000876
:1002E000141A0008141A0008C21A000800010202B9
:1002F00003030303040404040404040405050505BE
:100300000505050505050505050505050606060699
:10031000060606060606060606060606060606067D
:100320000606060606060606060606060707070769
:10033000070707070707070707070707070707074D
:10034000070707070707070707070707070707073D
:10035000070707070707070707070707070707072D
:100360000707070707070707070707070808080819
:1003700008080808080808080808080808080808FD
:1003800008080808080808080808080808080808ED
:1003900008080808080808080808080808080808DD
:1003A00008080808080808080808080808080808CD
:1003B00008080808080808080808080808080808BD
:1003C00008080808080808080808080808080808AD
:1003D000080808080808080808080808080808089D
:1003E000080808080808080808080808411106C68F
:1003F0004D2E01453D2E29455D2EF5BF82804111D0
:1004000022C42A84371501409145130505C006C64C
:10041000ED21894537350140EF0000577DD9A28590
:1004200037350140EF00C054854537350140EF00B6
:10043000A0557DD937350140EF00C0532244B2406A
:10044000371501409145130505C041016DA14111CA
:1004500022C42A8437150140130505C0854506C608
:10046000592922852244B240410151BF411122C481
:100470002A84371501408545130505C006C6A52900
:10048000135584001375F50F9D3F1375F40F224427
:10049000B2404101ADB7411122C42A843715014051
:1004A000130505C0854506C6892922852244B24028
:1004B0004101B1B701114EC6AA891305A00206CEAB
:1004C00022CC26CA4AC8AE8432893684E9371385DD
:1004D0001900693F13051900513F1305B002653F2C
:1004E0001385A40161371305A40149376244F24022
:1004F000D2444249B2491305C002056169BF3715AC
:10050000014079719145130505C006D6ED264800D6
:100510001921930740103EC28D473ECC930700201F
:100520003EC84C00C147373501403ECE02C402C62A
:1005300002CAFD2E9D4537350140892137350140DE
:100540001D21B2504561828041111305206006C60D
:1005500022C47526130530605D261305006045260C
:100560001305C060692E37140140130504809306FB
:10057000000E0D46E145F12C130504C091460D46D1
:10058000C145C12CAD3F8D460D46130504C0C14584
:10059000C924130504C08D458D268945130504C063
:1005A000A92E1305800C21248945130504C0A1261A
:1005B0005145F52A4545C53513054006CD2A130595
:1005C0001002D13D1305100BF935154549351305BA
:1005D000A003B53D1305A0039D3D1305200B653D0C
:1005E0001545B5351305A0039D351305A0038535C5
:1005F0001305300B4D351545993D1305A003813D7D
:100600001305A003A935154599351305A0038135B8
:100610001305A0032D3D1305400BB53D0D45053DCC
:100620001305000C8D3D13052006153509450535CC
:100630001145313D1305100CB93D1305000C013D6A
:100640001305200C893D354519350145093513053C
:10065000300C91351305D008DD3B1305A006C53BD2
:100660001305400C0D3D1305D008D5331305E00EDE
:10067000F93B1305500C05353945D13B1305000EE8
:10068000193D4145E9333945D9330945C9330D454C
:100690007D3B39456D3B1D455D3B09454D3B1D454A
:1006A0007D3329456D3349455D331305700245336C
:1006B00013057003693B0145593B3545493B3945B5
:1006C0007933414569331305100EF1334145413308
:1006D0003945B53B0D45A53B0D45953B3D45853B16
:1006E0001945B5330945A53321459533294585334A
:1006F0004D45B13B13056002993B13056003813BF7
:100700000145B1333545A1333945913341458133F5
:100710001305A003493315451D3B13056003A53B95
:100720001305800A2D332244B24013059002410183
:100730009DB341114AC09306F0042A891306F009BB
:100740008145014526C206C622C49304000A9D3392
:10075000130400054A857D14113B6DFCFD14EDF872
:10076000B240224492440249410182804111130562
:10077000206006C6692213054060512237150140EA
:100780009306F0050D469305800213050580D120E0
:10079000B24089660D46930580023715014041013C
:1007A0004DA8411106C6D937B240410171BB7971DC
:1007B0004AD04ECE5AC806D622D426D252CC56CAD9
:1007C0005EC662C466C22A8BDD24AA892E89C5242E
:1007D000AA842E846394A900E30BB9FEB707002016
:1007E00003A9870683A9C706B70B0020C924AA87D7
:1007F000058DB3B7A700818D9D8DEF106033AA8A58
:1008000003A50B062E8AEF10C02D4A86CE86EF0078
:10081000B00AAA8C5A852E8CEF10A02C2A86AE86A0
:100820006685E285EF00F0672A86AE865685D2851A
:10083000EF00D05CE34C05FAB250225492540259B6
:10084000F249624AD24A424BB24B224C924C456129
:10085000828093F7050193F8F50099C3B3E8C800C7
:100860008147054EBD4E130F8002930F8004214334
:100870003316FE00758E1DC21397270083220500D4
:100880003398EE001348F8FF337858003397E800A8
:10089000336707016399E50550C918C18507E399D6
:1008A00067FC054EBD4E130F8002930F8004414339
:1008B0003316FE00758E05C6139727000117832295
:1008C00045003398EE001348F8FF3378580033970B
:1008D000E80033670701639CE50150C958C18507EB
:1008E000E39867FC8280E39AF5FB10C97DB7E39734
:1008F000F5FF10C9E5B70CC982804CC98280135737
:100900006500B71702403E97144385473395A7000B
:10091000558D08C38280232005002322050023244F
:10092000050023260500232A0500232C05008280CC
:100930001C410D6713070704D4417D8F9C41D58F5F
:100940009445D58FD445D58F9449D58FD449D58F2B
:10095000944DD58FD98F1CC15C4D7D771307F77FE0
:10096000F98F5CCD82801C4193E707041CC1828013
:100970004CC5828048454205418182801C410967FF
:10098000D98F1CC10CC9828008456D8D3335A000FC
:100990008280B71702409843B706FFE0B10613679D
:1009A000170098C3D843758FD8C39843B706F7FE8E
:1009B000FD16758F98C39843B706FCFFFD16758F1B
:1009C00098C3D843B70601DFFD16758FD8C323A699
:1009D00007029843B706F7EAFD16758F98C33707E5
:1009E000FF0098C794434167D98E94C39307F7FFDC
:1009F0003717024014431396E60063440600FD17C0
:100A0000F5FBB717024098439316E70063C306004F
:100A100001A0D843B706C4DFFD16D8C3D843D8C356
:100A2000D84313670740D8C3D843758FD8C3D8437A
:100A3000B7062920558FD8C3D857BD76758FD8D71C
:100A4000D857C166938616F1558FD8D79843B70605
:100A50000004558F98C3B717024098439316470078
:100A6000E3DD06FE9843B7060010558F98C3B7170D
:100A70000240984393162700E3DD06FE9843B7062D
:100A80000001558F98C3B71702409843931667002B
:100A9000E3DD06FED843719BD8C3D8431367270014
:100AA000D8C3371702405C43A18BF5DF8280B707BC
:100AB00000D1D8438843CC43E39DE5FE8280B7074D
:100AC00000D223800700A385070093174500371540
:100AD00000D23E95B71700D263E3A700828023A01F
:100AE0000700C107D5BFF327503093F707FC93E702
:100AF0003700739057308280000000000000000033
:100B00005D7106C012C216C41AC61EC82ACA2ECCEF
:100B100032CE36D03AD23ED442D646D872DA76DCDD
:100B20007ADEFEC0F322103496C0F322003096C263
:100B3000F322407C96C4732520348A85E1208642C6
:100B400073901234964273900230A6427390427CA6
:100B500082401242A2423243C2435245E2457246AB
:100B600082561257A2573258C258525EE25E725FE6
:100B7000864F616173002030000000005D7106C087
:100B800012C216C41AC61EC82ACA2ECC32CE36D0FD
:100B90003AD23ED442D646D872DA76DC7ADEFEC04D
:100BA00073D0E87E7350F97E73D0B97EF390D07E17
:100BB00073700430B6427390427CA6427390123434
:100BC00096427390223482401242A2423243C24380
:100BD0005245E245724682561257A2573258C258C1
:100BE000525EE25E725F864F616173002030B7052E
:100BF00000084111154693850524054506C6BD2C00
:100C000005451D204111856722C406C6FD172A84AB
:100C10006313F500E93FB705000815469385852461
:100C20000545A92C228509207971B705000822D431
:100C30007D462A84938505250A8506D6B522794600
:100C40008A850945252CA28509450928B70500088C
:100C500005469385C5240945152401A079714AD01C
:100C60002E89B705000809469385052722D426D288
:100C70004ECE52CC56CA06D6AA84714401243D4AAF
:100C8000A54AF159B3178A00B3F72701B3D78700F4
:100C900093F7F70F63E9FA0293870703E207E18707
:100CA00005469305F10026857114A307F100F9228A
:100CB000E31A34FDB250225492540259F249624A66
:100CC000D24A4561828093877703C9BFAA8581464E
:100CD00001460145DDA24111B717000822C406C62E
:100CE000938727F42A8499C38145A12CB72700084C
:100CF00003A587D01C5591C38297228535374111B2
:100D0000B727000822C4372400081387C7D013046C
:100D1000C4D0198C26C206C609849384C7D011E4B6
:100D20002244B2409244410109A67D149317240045
:100D3000A6979C438297E5B74111B727000822C4C4
:100D4000372400081387C7D01304C4D0198C26C2D7
:100D50004AC006C6098481441389C7D063988402B7
:100D60007D24B7270008372400081387C7D0130451
:100D7000C4D0198C098481441389C7D0639F84002F
:100D8000B240224492440249410182809397240058
:100D9000CA979C4385048297D1B793972400CA973A
:100DA0009C4385048297D9BFB3C7A5008D8BB3063A
:100DB000C50081E78D4763EEC700AA876378D50A2F
:100DC00003C7050085078505A38FE7FEE3EAD7FE85
:100DD000828013773500AA8711CB03C705008507EA
:100DE0008505A38FE7FE13F73700FDB713F7C6FF9E
:100DF000130607FE63FBC70483A3050083A2450017
:100E000083AF850003AFC50083AE050103AE450186
:100E100003A3850183A8C50123A0770023A257005F
:100E200003A8050223A4F70123A6E70123A8D701FD
:100E300023AAC70123AC670023AE1701938545029F
:100E40009387470223AE07FF75B72E883E866360FF
:100E5000E6021388D7FF0146636607010D071D8F61
:100E60001376C7FFB297B295E3ECD7F4828083285C
:100E7000080011061108232E16FFD1BFB707002066
:100E8000B2862E86AA8503A5470609A0411122C471
:100E900026C22A842E85B285368606C623A0018AFC
:100EA000752AFD576316F50083A7018A91C31CC0FC
:100EB000B2402244924441018280370800208327B7
:100EC0000807AA888DE7370700201305470723285E
:100ED000A8063708000013030800930747076308B4
:100EE0000300832708002324F50893074707D84306
:100EF0007D487D556346E804638D080203A8870892
:100F00006300080413152700429510C1032308103D
:100F100005463316E6003363C30023206810232000
:100F2000D50889466397D80083264810558E23221A
:100F3000C810930617000A07D4C3BA978CC7014597
:100F40008280797152CC56CA5AC862C406D622D45D
:100F500026D24AD04ECE5EC666C2AA8A2E8A370BE9
:100F60000020054C03240B07930B0B0711C84440CA
:100F7000832984081389F4FF8A04A294635F09001B
:100F8000B250225492540259F249624AD24A424B18
:100F9000B24B224C924C45618280630E0A006395ED
:100FA00009007D19F114D9BF93172900CE9783A7A3
:100FB0000708E39847FF5840DC407D176318270374
:100FC00023222401F9DF832C44006388090083A6CF
:100FD000091033172C01F98E89EE8297584083A7A8
:100FE0000B00E31197F9E30EF4FAADBF23A204005E
:100FF000D1BF93162900CE968C4283A64910758FD7
:1010000001E756858297D9BF2E858297C1BF4111CE
:1010100006C6EFF01F9813057005EFF05FAAEFF01A
:101020009FACB24041016FF02FA08280411126C2D7
:10103000B744014022C49375F50F2A8413850480B8
:1010400006C69384048099289D452685A1286DDDD8
:10105000B24022852244924441018280011122CC77
:1010600026CA4AC84EC606CEB2842E843389C5002D
:10107000A949631A2401F24062444249B2492685D3
:10108000D24405618280034504004D378347040044
:10109000639437013545593F0504E1BF93F5F51FCA
:1010A0004CC1828093D7650093F7F73FAA97884396
:1010B0003355B50005898280797193D7450126D2D1
:1010C0004AD052CC5EC662C49394C50006D622D4E0
:1010D0004ECE56CA5AC8139757012A89B28B368CFE
:1010E000B18013DAF50149C793FAF77F9307F07FD0
:1010F000638AFA0C9359D5018E04B3E49900B709B9
:101100008000B3E9340113143500938A1AC0014BEF
:1011100093574C019314CC0013975701B18093F56A
:10112000F77F135CFC0171C39307F07F638AF510AE
:101130001395340093D7DB015D8DB7048000C98C13
:10114000939F3B00138515C0014693172B00D18F49
:10115000FD173947B3468A01B385AA406364F71087
:10116000370700088A0713074727BA979C438287E7
:10117000B3E9A400638209069DC82685EF001035F7
:10118000930755FF71476349F702F549130485FF3B
:10119000B389F940B3948400B3593901B3E9990094
:1011A000331489009305D0C0B38AA5408DB7EF00F2
:1011B000F03113050502E9B7930485FDB3199900D1
:1011C0000144CDB7B3E9A400638C09002A84A68941
:1011D000930AF07F0D4B2DBF0144814A054B0DBF93
:1011E0000144930AF07F094B25B7B3EF7401638282
:1011F0000F069DC82685EF00702DAA85938755FFA1
:1012000071476349F702F546938F85FF9D8E3395AD
:10121000F401B3D6DB00B3E4A600B39FFB011307D0
:10122000D0C03305B7400DB75E85EF00302A930577
:101230000502E9B7138585FDB394AB00814FC5B7AF
:10124000B3EF7401638B0F00DE8F1305F07F0D4643
:10125000EDBD814401450546CDBD81441305F07FB8
:101260000946E5B563E634016396992A6364F42B75
:101270001396F901135714009317F40193D9190029
:101280003364E6001395840093D88F01B3E8A80077
:10129000418133D8A902939E080193DE0E011357B2
:1012A000040113938F00B3F4A902C28F33860E0397
:1012B0009399040133673701637CC7004697930F06
:1012C000F8FF636717016375C700930FE8FF469740
:1012D000118F335EA702420441803377A7027286E2
:1012E0003388CE034207418F637C0701469713067C
:1012F000FEFF63671701637507011306EEFF46974C
:1013000033040741C20F4168B3EFCF00130EF8FF5B
:1013100013D60F0133F7CF01135F0301337EC301EF
:10132000B303EE02B304C6033307EF02B302E603CE
:101330003306970013D70301329763739700C29265
:10134000135607011696C162FD1233785700420802
:10135000B3F353001E986367C400FE84631EC40287
:1013600063FC07039A9733B7670046973A949384D0
:10137000FFFF63E688006391880263EF670063669E
:10138000C400631B860063F907019A9733B76700AF
:1013900046979384EFFF3A9433880741118CB3B793
:1013A00007011D8CFD5F6387880EB35FA40213578E
:1013B00008013374A4027E86B387FE034204598C6D
:1013C000637CF40046941386FFFF63671401637522
:1013D000F4001386EFFF46941D8C3357A402420895
:1013E000135808013374A402BA87B38EEE02420484
:1013F00033648800637CD40146949307F7FF6367E6
:1014000014016375D4019307E7FF469442065D8E8D
:1014100093170601C183135706013308EF02330403
:10142000D441330FFF02B38EC703330EC70393D7E4
:101430000E01729FFA9763F4C70141673A9813D778
:101440000701429741687D1833F507014205B3FE55
:101450000E0176956366E4006310E41AB28F1DC92D
:101460004694930FF6FF636114036366E40063140C
:10147000E418637DA3009317130033B367009A98B1
:10148000930FE6FF46943E836314E4006304650013
:1014900093EF1F009387F53F635BF00A13F77F001C
:1014A00001CF13F7FF0011466308C70013864F00F2
:1014B000B33FF601FE94B28F139774006358070090
:1014C000B70700FFFD17FD8C938705401307E07FEA
:1014D0006342F70693DF3F001397D4013367F701A8
:1014E00013D53400D2073706F07F3205B2502254AC
:1014F000F18F31815D8DFE06B367D500925402599C
:10150000F249624AD24A424BB24B224C3A85BE85DE
:1015100045618280FD158147B5B3D286CE84A28F06
:101520005A868D47630BF60A8547630FF60A89478B
:10153000E312F6F6014501479307F07F65B7E286AF
:10154000CDB7B7040800814F81460D46D9BF054588
:101550001D8D130780036349A7087D476349A704CE
:101560009385E541B397B40033D7AF00B395BF007F
:10157000D98FB335B000CD8F33D5A40013F77700E2
:1015800001CF13F7F70011466308C7001387470020
:10159000B337F7003E95BA871317850063490704F0
:1015A0001317D5018D835D8F0D81814725BF0557A9
:1015B000B307F74013060002B3D7F40001476306F0
:1015C000C5009385E5433397B400B36FF701B33F8C
:1015D000F001B3E7F701014555B7370508000147AA
:1015E0009307F07F8146FDBD014501477DBF014561
:1015F00001478547C5BD7E86B28F59BD37071000AC
:101600007D1713D84501B378B700AA872A831378CA
:10161000F87F13D5F501930EF07F93D54601758FB2
:10162000328E93F5F57FFD826318D801B3EEF80092
:1016300063840E06094582806396D501B36EC700A8
:10164000E39A0EFE631C0804B3E7F80093B7170093
:1016500099E1598E0DCE81EB6314D50063D9050154
:101660000DC57D5582807D5591C636858280635437
:10167000B80065D98280E36517FF639CE800E361E9
:101680006EFEE368C3FF0145828005458280E5FF69
:10169000C1BFE3E0E8FEC5BFE38205FBD5FD81479E
:1016A0004DBF797193D7450122D426D24ECE52CC6C
:1016B00056CA9394C50006D64AD05AC85EC6139738
:1016C00057012A84B289B68AB18013DAF50159C369
:1016D00013FBF77F9307F07F6304FB0C9357D5014F
:1016E0008E04DD8CB7078000DD8C13193500130BD9
:1016F0001BC0814B93D74A011394CA00139757011B
:10170000318013F5F77F93DAFA014DCF9307F07F1D
:101710006300F51093D7D9010E045D8CB7078000E4
:101720005D8C130515C093973900014793962B00E4
:10173000D98E5A95FD16394833465A01930515003E
:101740006369D80E370500088A061305052BAA968B
:101750009442828633E9A400630D090485C8268576
:10176000B523130755FFF14763C6E702F547130991
:1017700085FF998FB3942401B357F400DD8C33199E
:101780002401130BD0C0330BAB40A5B78123130545
:101790000502C1BF930485FDB31494000149D5B778
:1017A00033E9A400630B09002A89130BF07F8D4BEA
:1017B00091B78144014B854B35BF8144130BF07FBA
:1017C000894B0DBFB3673401A1CF05C82285FD2920
:1017D000930655FFF14763C7D7027547930785FF07
:1017E000158F3314F40033D7E900598CB397F900FF
:1017F0001307D0C03305A7400DBF4E85C12913057F
:101800000502F9B7130485FD339489008147CDB7EC
:10181000B367340191CBCE871305F07F0D4739B7FD
:1018200001440145054719B701441305F07F0947F5
:10183000F5BD416F1307FFFF9356090113D307014D
:101840003379E900F98FB30823033308F902B38F22
:10185000F602B38EF80193580801F698338E6602AB
:1018600063F3F8017A9E93D20801B3F8E800337865
:10187000E800135F0401C208798CC298338786029E
:101880003308890233092F03B30EE9001359080105
:101890007699B386E6036374E9004167BA96935E6E
:1018A0000901B69EC166938FF6FF3379F90133784B
:1018B000F80113D704014209B3F4F401B38397028A
:1018C0004299CA9233089302B307F702B30FE302B7
:1018D0003303F80013D803011A986373F800B69F16
:1018E00093570801C166BE9F9387F6FF3378F800CF
:1018F000B3F7F300B303940242083E98330487021F
:10190000B3049F023303EF02A29413D70301BA94E6
:1019100063F384003693C167FD17B3F6F400C20683
:10192000B3F7F300169EBE9633392E01F696338731
:101930002601429E33380E01330FF701B3020F0127
:10194000B3B6D60133372701558F33B80201C180B2
:10195000B33FFF01269733E80F0193179E0042978C
:101960001A97B3E717012607B337F000135E7E011D
:1019700013D47201B3E7C701A60293167700598CFE
:10198000B3E7570063DA060A13D71700858BD98FA0
:101990001317F401D98F05809386F53F6350D00A61
:1019A00013F7770001CF13F7F70011456308A7007D
:1019B00013874700B337F7003E94BA8713177400B4
:1019C00063580700370700FF7D17798C9386054021
:1019D0001307E07F634ED70E13D737009317D40158
:1019E000D98F0D80139746013204B706F07F758FAB
:1019F0003180598C7E06B2503367C4002254925411
:101A00000259F249624AD24A424BB24B3E85BA85EC
:101A10004561828052862684CA875E87894663092B
:101A2000D70A8D46630FD7088546E317D7F60144DA
:101A300081479DA05686DDB7AA85B9BF0545158D9E
:101A400013078003E345A7FE7D476349A7049385F9
:101A5000E5413317B400B3D6A700B397B700558F4D
:101A6000B337F000D98F3354A40013F7770001CFB8
:101A700013F7F70091466308D70013874700B33781
:101A8000F7003E94BA8713178400634807041317BE
:101A9000D4018D83D98F0D808146A9B70557158F45
:101AA000130800023357E40081466306050193855D
:101AB000E543B316B400D58FB337F000D98F014496
:101AC0006DB73704080081479306F07F014619BFC0
:101AD000014481479306F07F31B701448147854631
:101AE00011B7411122C406C62A8421C1C522130799
:101AF000E041A947098F63C4A702AD47898F550507
:101B0000B357F4003314A400B2402285B207224434
:101B10005207B183B366F700B6854101828093070F
:101B200055FFB317F4000144C5B781470147E9BF2A
:101B3000011106CE22CC26CA4AC84EC652C4B3678B
:101B4000B500638707122A842E89AE84ADC12E8525
:101B5000B52AAA89130AE043330A3A41930730436E
:101B600063C147072D47A287635337031307A002BA
:101B7000634337059304B002138759FFB38434419C
:101B8000B3549400B315E900CD8CB317E400F240D0
:101B900062449395C400520AB1813367BA00D244BB
:101BA0004249B249224A3E85BA8505618280392A76
:101BB0009309050245B7938559FDB314B4008147D5
:101BC000F9B79307604363D34703138689032285DC
:101BD000CA85C1284D8D2146B334A000CA8522850F
:101BE00033063641512833E4A4002E892147A287C9
:101BF000CA85635437031307700263453707138799
:101C000089FFB315E90013098002330939413359BB
:101C10002401B365B900B317E400370780FF7D17CF
:101C2000F98D13F7770001CF13F7F700914663089A
:101C3000D70013874700B337F700BE95BA871397CD
:101C40008500635A0700370780FF7D17130AF043AA
:101C5000F98D330A3A418D831395D501C98F93D4F9
:101C6000350035B7938589FDB315B400814775B745
:101C700081448147014A21BF01CE93070002918F21
:101C80006349F000130506FE014733D5A500BA8568
:101C9000828033D7C5003355C500B395F5004D8D0F
:101CA000FDB701CE93070002918F6349F0009305C1
:101CB00006FE0147B315B5003A8582803317C5008B
:101CC000B395C5003355F500C98DFDB7C16763767F
:101CD000F5029307F00FB3B7A7008E073707000888
:101CE000930600029D8E3355F5009307C72E3E954F
:101CF000034505003385A640828037070001C147B0
:081D0000E36EE5FCE147D9BFE9
:041D080000000020B7
:101D0C0000000000000000000000000000000000C7
:101D1C0000000000000000000000000000000000B7
:101D2C0000000000000000000000000000000000A7
:101D3C000000000000000000000000000000000097
:101D4C000000000000000000000000000000000087
:101D5C000000000000000000000000000000000077
:101D6C0000F36F0600000020000000000040AF40B0
:040000050800015C92
:00000001FF
